:100000000C9434000C943E000C943E000C943E0082
:100010000C943E000C943E000C943E000C943E0068
:100020000C943E000C943E000C943E000C943E0058
:100030000C943E000C943E000C943E000C943E0048
:100040000C943E000C943E000C943E000C943E0038
:100050000C943E000C943E000C943E000C943E0028
:100060000C943E000C943E0011241FBECFEFD8E04C
:10007000DEBFCDBF0E9440000C946D000C940000C8
:10008000EAE2F0E08081886F8083E4E2F0E0808142
:100090008F618083A5E2B0E0EBE2F0E060E177E21F
:1000A00040E951E08C918F618C938081886F8083CF
:1000B0009B01CA010197F1F721503040D1F78C9193
:1000C000807E8C938081877080839B01CA01019719
:0E00D000F1F721503040D1F7E5CFF894FFCF83
:00000001FF
